:020000040000FA
:020000000528D1
:06000A00831203138501BF
:1000100086018801831607309F00850186018801CB
:10002000FF308900831210309F009F171F131F1489
:1000300071200908003A031936280908013A031902
:100040006B280908023A03196C280908033A0319B6
:100050006D280908043A03196E280908053A03199E
:100060006F280908063A0319702819288030822061
:1000700048308A2050308A2072308A206F308A209F
:1000800079308A2065308A2063308A2074308A2053
:100090006F308A2020308A204E308A206F308A20AC
:1000A0002E308A2032308A20C030822056308A207A
:1000B0004F308A204C308A204D308A2045308A20AB
:1000C00054308A2052308A204F308A200908003A62
:1000D000031D1928662819281928192819281928EC
:1000E0001928303082209B20303082209B203830ED
:1000F00082200C30822001308220063082200230A3
:100100008220080086009220051085149220851018
:100110000608080086009220051485149220851098
:10012000060808000230A100A430A000A00B962809
:10013000A10B942808000330A000FF30A100FF307D
:10014000A200A20BA128A10B9F28A00B9D280800AC
:00000001FF
